:0B0E4800120E2C120CF7120BAA80FBFC
:100CF700C290C291C292C293C294C295C296C29741
:090D0700C2A0C2A1C2A2C2A32233
:090E5D00C2A0C2A1C2A2C2A322DC
:100D9300D290C291C292D293D294C295C296D29764
:010DA300222D
:100DA400C290D291D292C293C294D295D296C29753
:010DB400221C
:100D6D00120E5DC290C291C292C293C294C295C23C
:040D7D0096C2972261
:100DB500C290C291C292C293D294C295C296D29762
:010DC500220B
:100DC600D290C291C292D293C294C295C296C29751
:010DD60022FA
:100DD700C290D291D292C293D294C295C296D29720
:010DE70022E9
:100DE800D290C291C292D293C294D295D296C2970F
:010DF80022D8
:100DF900D290C291C292C293D294C295C296D2970E
:010E090022C6
:100E0A00D290C291C292D293D294C295C296C297FC
:010E1A0022B5
:030E7300DFFE227D
:100D5800AE07AF061EEF600C7FF5120E737FF5121B
:050D68000E7380EE2275
:100D4200AD07ED75F005A4FDAF051DEF60077FC887
:060D5200120D5880F3228F
:090D8100011E00011D00011C000F
:100E2C00438920758B1A758D1AD2AFD2ABD28E2214
:03001B00020C7F55
:040C7F00C0E0C0D041
:100C8300E51CD3951E500AD2A0D2A1D2A2D2A38032
:100C930008C2A0C2A1C2A2C2A3051CE51CC39450F2
:050CA3004003751C0078
:050CA800D0D0D0E032C5
:100BAA0030B51320B610751E5030B55F20B65C12F2
:100BBA000DE820B5F42220B51330B610751E50206A
:100BCA00B54930B646120DD720B6F422A2B582B680
:100BDA005009120D93B2A67F64801E30B70D20B45F
:100BEA000A751E23120DE87F01800E20B70E30B45D
:100BFA000B751E23120DD77F01020D5820B7062050
:0C0C0A00B403020D6D751E1E120D932226
:100D100020257520000000000000000000000000F9
:090D2000000000000000000000CA
:080D8A0002410000C10AC10989
:08000300438901D2AFD2A9220A
:080E6600E4F58AF58CD28C2220
:030E7600C28C2209
:03000B00020E6E74
:050E6E00C2A4D20A320B
:0A0E5300D2A57F06120E73C2A5227D
:0C000E0030A4FD120E6620A4FD020E7648
:100C160078087C007D007BFF7A0D79157E007F14B5
:100C26001205EDAF8CEFFEAD8A7C00E42DFFEC3EA5
:100C3600FE300A0AC20A74FFF541F542801AAD0772
:100C4600AC06E41201297B747A247997783C120069
:100C56001E1201628E418F427525FF75260D75277E
:100C6600108541288542297B007A00790812070BF6
:090C76007B007A007908020CD41D
:100E1B00D3E5429414E54194005003D20922C20950
:010E2B0022A4
:0C0E3C00120E5312000E120C16020E1BB8
:100D290075985075CBFF75CADC85CBCD85CACC7556
:090D3900C834D2BCD2AFD2AC2206
:060CD4008B3E8A3F8940BF
:100CDA00E4FFAB3EAA3FA9408F8275830012062C1F
:0C0CEA00600AF5993099FDC2990F80E670
:010CF60022DB
:10001E00EC4D6011E8497017ED33EC3304600DE4DC
:10002E00FCFFFEFD22E933E8330470F80201CE1224
:10003E00019958046009E4CC248150062850090225
:10004E0001D82840030201D5C0E0EB4A7044B980C4
:10005E0006D0E0FB0201C4EF4E701CBD8008EBFF22
:10006E00EAFEE9FD80EBE98DF0A4FEE5F002010762
:10007E00E9CDF9EAFEEBFFEF89F0A4FCE5F0CE89BD
:10008E00F0A42EFFE435F0CD89F0A42DFEE435F07A
:10009E008067EF4E7005BD80D780C3EF8BF0A4ACA8
:1000AE00F0EE8BF0A42CFCE435F0F8EF8AF0A42CE3
:1000BE00E5F038FCE433CB8DF0A42CFCE5F03BF8F6
:1000CE00EE8AF0A42CFCE5F038F8E433CF89F0A4E6
:1000DE002CFCE5F038CF3400CE89F0A42FFFE5F0EC
:1000EE003EFEE433C98DF0A42EFEE5F039CD8AF044
:1000FE00A42FFFE5F03EFEE43DFD33D0E0FB5007BC
:10010E000BBB000F0201D8EC2CFCEF33FFEE33FEDD
:06011E00ED33FD0201B00B
:1001240075F020800E75F010800575F0087D007E56
:10013400007F003392D530D50312066BEC334010A8
:10014400EF33FFEE33FEED33FDEC33FCD5F0ED225F
:0E015400E5F0247EA2D513CC92E7CDCEFF229B
:10016200EDD2E7CD33EC3392D524814006E4FFFE95
:10017200FDFC22FCE4CFCECDCC24E0501174FF80F4
:10018200EDC3CC13CCCD13CDCE13CECF13CF047091
:07019200F030D5DE02066B20
:1006AF00E5392425F8E60539227822300702782526
:1006BF00E475F0011206790206132000EB7F2ED2AB
:1006CF00008018EF540F2490D43440D4FF30040B23
:1006DF00EF24BFB41A0050032461FFE53A600215FE
:1006EF003A053DE53D7002053C30070D7822E47573
:1006FF00F001120679EF020659020CAD7403D2070E
:10070F008003E4C207F5398B228A238924E4F53A62
:10071F00F53CF53DE53A60077F201206EA80F57556
:10072F003BFFC201C200C202C203C205C206C20819
:10073F001206B8FF700D3007057F001206FBAF3DA4
:10074F00AE3C22B4255FC2D5C2041206B8FF24D036
:10075F00B40A00501A75F00A783A30D50508B6FF7A
:10076F000106C6A426F620D5047002D20380D92430
:10077F00CFB41A00EF5004C2E5D2040209E8D20147
:10078F0080C6D20080C0D20280BCD2D580BAD2053A
:10079F0080B47F201206EA2002077401B53A0040A8
:1007AF00F11206AFFF1206EA020723D208D2068023
:1007BF00951206AFFB1206AFFA1206AFF94A4B704D
:1007CF000679DF7A0A7BFF20022EE53A602A7E0047
:1007DF008E8275830012062C60060EEE653B70F05C
:1007EF00C2D5EBC0E0EAC0E0E9C0E0EE120A48D0A3
:1007FF00E0F9D0E0FAD0E0FB120613FF60AAEBC0DD
:10080F00E0EAC0E0E9C0E01206EAD0E02401F9D046
:10081F00E03400FAD0E0FBE53B0460DCD53BD98047
:10082F0087D20280A2120A2B60F7E53B70010412F7
:10083F0001E3A93B600DE53B600914F53B120AD2B9
:10084F00EF60F3EA30E702F404C3995077EAF42536
:10085F003B0430E701E404F53B800D120A2B60C125
:10086F00EA053B253B1201E3EA7838F630E701E46D
:10087F00253B04D53B0420050114120A48E4C0E0CF
:10088F00120AD27838E6601320E70714F61206D260
:10089F00802204F6D0E014C0E07F001206D2E53BC0
:1008AF0060071206C9153B800B3005031206C9D02D
:1008BF00E0020723D0E00480C5120A2B60A0E53BBD
:1008CF00041201E37838EAF6E53B200502600104E3
:0508DF002404120A4888
:1008E40074FF04C0E0120AD21206D2E53B200502CE
:1008F40060031206C9D0E0B53BE87F451206DC78F8
:1009040038E67F2B30E7047F2DF404C0E01206EABA
:10091400D0E075F00A84C0F01206D3D0E01206D3FA
:10092400020723791080027908C206C2088008D21F
:10093400D5790A8004790AC2D5E53B047002F53BF7
:10094400E4FAFDFEFF1206AFFC7B08200113120639
:10095400AFFD7B1030000A1206AFFE1206AFFF7B1C
:1009640020EC3382D592D55013C3E43000069FFFA8
:10097400E49EFEE42001039DFDE49CFCE4CBF8C26C
:1009840001EC700CCFCECDCCE824F8F870F38017CE
:10099400C3EF33FFEE33FEED33FDEC33FCEB33FBFF
:1009A400994002FB0FD8E9EB300105F8D0E0C448C8
:1009B400B201C0E00AEC4D4E4F78207B0070C2EAD1
:1009C400B53B0040BCC0E0120A4AD0F0D0E02001A0
:1009D40004C4C0E0C4B201C0F01206D3D0F0D5F014
:1009E400EB02072312068907C05309275807914CC5
:1009F400078D42092B4F09334409334907A643099C
:100A04003955086A4608C8450834470AFF5007950F
:100A14002D07992E07BC2B079D2307BA200AE82A25
:100A2400075548000007B4E53BB4FF03753B0612C5
:100A340006AFFC1206AFFD1206AFFE1206AFFF783A
:100A440031020212790AA2D5200314300509B91023
:100A5400020404B9080104A2D520060250010420AE
:100A640002689202B53A005034C0E07F2030031986
:100A74007F30A20272067205500F120AA1C202C28E
:100A840006C205C2087F30800F300503E9C0E012BA
:100A940006EA300503D0E0F9D0E0B53ACC300517CA
:100AA4007F30B9100C1206EA7F583004077F788033
:100AB40003B908031206EA3002057F2D0206EA7F15
:100AC400202008F87F2B2006F322920280CF7F009B
:100AD400B4070050052431F8E6FF22286E756C6CCB
:100AE4002900D2011206AF3001F8C201783A30D59C
:100AF4000108F60207552D504349581206AF240346
:100B0400B405004001E4900AFA931206DB743A1229
:0A0B140006DBD203753A040209273C
:10019900E9D2E7C933E833F892D5EDD2E7CD33ECAC
:0701A90033FC5002B2D52225
:1001B000EC30E7100FBF000C0EBE00080DBD0004B0
:1001C0000BEB6014A2D5EB13FCED92E7FD2274FF5C
:1001D000FCFDFEFF22E480F8A2D574FF13FC7D80B5
:0301E000E480EFC9
:1001E300F920E72824F950037907E4F42402FB18E3
:1001F300DBFDE624FB5014E9600DE4F618E604F693
:0F020300B40A08E4F6D9F57401F60A22C2D5222E
:10021200ED33EC3392D5FA602AB4FF33EDC2E77BBB
:10022200FF60067A027937E4227A02794020D50407
:100232007A02793B224E614E002B494E46002D49EF
:100242004E4600E47A08F608DAFC7B00740722E8DE
:10025200C0E0ECC0E0EDC0E0EEC0E0EFC0E0EA7567
:10026200F010A4CAABF075F04DA42BFBE435F0FC02
:10027200EA2410FAEB34C5FBEC34D9FCEDC2E7FFFB
:1002820075F056A4F42411C5F0F434C58FF0A42AF5
:10029200E5F03BE43CF620E7141204DDD0E0FFD0A9
:1002A200E0FED0E0FDD0E0FC1204108014F4041251
:1002B20004DDD0E0FFD0E0FED0E0FDD0E0FC120093
:1002C2001ED0E0F8E6FAEDD2E7CD33EC332482FB20
:1002D200E4C3CF33CFCE33CECD33CD33DBF37B0785
:1002E20075F00A846004F6081B0AE5F0F6088FF040
:1002F200740AA4FFACF08EF0740AA42CFEACF05089
:10030200010C8DF0740AA42CFDE435F0F608DBDE56
:030312007407224B
:100315000201CEE86480F8E933E83360110460F047
:10032500ED33EC337009E8FCE9FDEAFEEBFF22044E
:1003350060DED3EB9FEA9EE99DE8C2E78CF0C2F749
:1003450095F0400CE8CCF8E9CDF9EACEFAEBCFFB15
:1003550012019985D0F05804700320D5B3E80470D4
:10036500075002B2D50201D892D5EC0460F7E4CC6F
:10037500C0E0C398F8603B94186008400DD0E0FBDE
:100385000201B0E4FBFAC9FC8028E830E406E4C9C0
:10039500FBE4CAFCE830E305E4C9CACBFCE8540732
:1003A5006010F8C3E913F9EA13FAEB13FBEC13FC3D
:1003B500D8F130F52FC3E49CFCEF9BFFEE9AFEEDE0
:1003C50099FDD0E0FBEF4E4D4C701222DB0302018C
:1003D500D5EC2CFCEF33FFEE33FEED33FDED30E7CE
:1003E500EB0201B0EF2BFFEE3AFEED39FDD0E0FB5D
:1003F50050130BBB00030201D8ED13FDEE13FEEF06
:0804050013FFEC13FC0201B02F
:10040D000201D8EC5D046005E8590470030201CEC9
:10041D00120199580460F6EC4860F2EC7004FDFE90
:10042D00FF22C860DB2481C85009C39860025006C2
:10043D000201D59850CAF582E9294B4A7005AB8265
:10044D000201C475F0007C1A7880C3EF9BEE9AED23
:10045D0099400DC3EF9BFFEE9AFEED99FDE842F03A
:10046D00DC23ACF0D0E0FFD0E0FED0E0FDAB82208D
:10047D00E7101BEB60BAEC2CFCEF33FFEE33FEED17
:10048D0033FD0201B0E803F830E705C0F075F00068
:10049D00EF2FFFEE33FEED33FD40B830E7C280AAFB
:1004AD003F8000004120000042C80000447A000057
:1004BD00461C400047C35000497424004B189680D9
:1004CD004CBEBC205A0E1BCA6753C21C749DC5AED0
:1004DD00FB60065407601C232312050BEB54386098
:1004ED00091204F712050612001EECF8EDF9EEFAEA
:1004FD00EFCB22EB12050680F1543803241C900437
:10050D00ADFE93FC0EEE93FD0EEE930ECE93FF22F9
:03000000020B1ED2
:0C0B1E00787FE4F6D8FD758142020B657B
:10051D00E709F608DFFA8046E709F208DFFA803EC0
:10052D0088828C83E709F0A3DFFA8032E309F608AD
:10053D00DFFA8078E309F208DFFA807088828C8315
:10054D00E309F0A3DFFA806489828A83E0A3F608C9
:10055D00DFFA805889828A83E0A3F208DFFA804CA3
:10056D0080D280FA80C680D4806980F2803380107A
:10057D0080A680EA809A80A880DA80E280CA8033E3
:10058D0089828A83ECFAE493A3C8C582C8CCC5835B
:10059D00CCF0A3C8C582C8CCC583CCDFE9DEE7802B
:1005AD000D89828A83E493A3F608DFF9ECFAA9F0AA
:1005BD00EDFB2289828A83ECFAE0A3C8C582C8CC00
:1005CD00C583CCF0A3C8C582C8CCC583CCDFEADE19
:1005DD00E880DB89828A83E493A3F208DFF980CC7B
:1005ED0088F0EF60010E4E60C388F0ED2402B40474
:1005FD000050B9F582EB2402B4040050AF2323451B
:06060D00822390056D73CD
:10061300BB010689828A83E0225002E722BBFE02E5
:09062300E32289828A83E4932218
:10062C00BB010CE58229F582E5833AF583E0225083
:10063C0006E92582F8E622BBFE06E92582F8E222CD
:0D064C00E58229F582E5833AF583E49322E7
:10065900BB010689828A83F0225002F722BBFE0180
:02066900F3227A
:0E066B00C3E49FFFE49EFEE49DFDE49CFC22A0
:10067900FAE6FB0808E6F925F0F618E6CA3AF62282
:10068900D083D082F8E4937012740193700DA3A300
:1006990093F8740193F5828883E473740293686014
:0606A900EFA3A3A380DF14
:100CAD00EFB40A07740D120CB8740A309811A89994
:100CBD00B8130CC2983098FDA899C298B811F630A7
:070CCD0099FDC299F599227F
:100B2A00020E48E493A3F8E493A34003F68001F28B
:100B3A0008DFF48029E493A3F85407240CC8C333CC
:100B4A00C4540F4420C8834004F456800146F6DF9B
:100B5A00E4800B0102040810204080900D81E47E9D
:100B6A00019360BCA3FF543F30E509541FFEE49390
:100B7A00A360010ECF54C025E060A840B8E493A357
:100B8A00FAE493A3F8E493A3C8C582C8CAC583CA82
:100B9A00F0A3C8C582C8CAC583CADFE9DEE780BE3A
:010D92000060
:00000001FF
